{
    "contractName": "Ballot",
    "abi": [
        {
            "inputs": [
                {
                    "internalType": "bytes32[]",
                    "name": "proposalNames",
                    "type": "bytes32[]"
                }
            ],
            "stateMutability": "nonpayable",
            "type": "constructor"
        },
        {
            "inputs": [],
            "name": "chairperson",
            "outputs": [
                {
                    "internalType": "address",
                    "name": "",
                    "type": "address"
                }
            ],
            "stateMutability": "view",
            "type": "function"
        },
        {
            "inputs": [
                {
                    "internalType": "address",
                    "name": "to",
                    "type": "address"
                }
            ],
            "name": "delegate",
            "outputs": [],
            "stateMutability": "nonpayable",
            "type": "function"
        },
        {
            "inputs": [
                {
                    "internalType": "address",
                    "name": "voter",
                    "type": "address"
                }
            ],
            "name": "giveRightToVote",
            "outputs": [],
            "stateMutability": "nonpayable",
            "type": "function"
        },
        {
            "inputs": [
                {
                    "internalType": "uint256",
                    "name": "",
                    "type": "uint256"
                }
            ],
            "name": "proposals",
            "outputs": [
                {
                    "internalType": "bytes32",
                    "name": "name",
                    "type": "bytes32"
                },
                {
                    "internalType": "uint256",
                    "name": "voteCount",
                    "type": "uint256"
                }
            ],
            "stateMutability": "view",
            "type": "function"
        },
        {
            "inputs": [
                {
                    "internalType": "uint256",
                    "name": "proposal",
                    "type": "uint256"
                }
            ],
            "name": "vote",
            "outputs": [],
            "stateMutability": "nonpayable",
            "type": "function"
        },
        {
            "inputs": [
                {
                    "internalType": "address",
                    "name": "",
                    "type": "address"
                }
            ],
            "name": "voters",
            "outputs": [
                {
                    "internalType": "uint256",
                    "name": "weight",
                    "type": "uint256"
                },
                {
                    "internalType": "bool",
                    "name": "voted",
                    "type": "bool"
                },
                {
                    "internalType": "address",
                    "name": "delegate",
                    "type": "address"
                },
                {
                    "internalType": "uint256",
                    "name": "vote",
                    "type": "uint256"
                }
            ],
            "stateMutability": "view",
            "type": "function"
        },
        {
            "inputs": [],
            "name": "winnerNane",
            "outputs": [
                {
                    "internalType": "bytes32",
                    "name": "name",
                    "type": "bytes32"
                }
            ],
            "stateMutability": "view",
            "type": "function"
        },
        {
            "inputs": [],
            "name": "winningProposal",
            "outputs": [
                {
                    "internalType": "uint256",
                    "name": "winningProposal_",
                    "type": "uint256"
                }
            ],
            "stateMutability": "view",
            "type": "function"
        }
    ],
    "bytecode": "608060405234801561001057600080fd5b506040516109b73803806109b783398101604081905261002f916100e2565b600080546001600160a01b03191633908117825581526001602081905260408220555b81518110156100c5576002604051806040016040528084848151811061007a5761007a61019f565b602090810291909101810151825260009181018290528354600181810186559483529181902083516002909302019182559190910151910155806100bd816101b5565b915050610052565b50506101dc565b634e487b7160e01b600052604160045260246000fd5b600060208083850312156100f557600080fd5b82516001600160401b038082111561010c57600080fd5b818501915085601f83011261012057600080fd5b815181811115610132576101326100cc565b8060051b604051601f19603f83011681018181108582111715610157576101576100cc565b60405291825284820192508381018501918883111561017557600080fd5b938501935b828510156101935784518452938501939285019261017a565b98975050505050505050565b634e487b7160e01b600052603260045260246000fd5b6000600182016101d557634e487b7160e01b600052601160045260246000fd5b5060010190565b6107cc806101eb6000396000f3fe608060405234801561001057600080fd5b50600436106100885760003560e01c8063609ff1bd1161005b578063609ff1bd1461010d5780636a832edb146101235780639e7b8d611461012b578063a3ec138d1461013e57600080fd5b80630121b93f1461008d578063013cf08b146100a25780632e4176cf146100cf5780635c19a95c146100fa575b600080fd5b6100a061009b3660046106ef565b6101af565b005b6100b56100b03660046106ef565b6102aa565b604080519283526020830191909152015b60405180910390f35b6000546100e2906001600160a01b031681565b6040516001600160a01b0390911681526020016100c6565b6100a0610108366004610708565b6102d8565b610115610527565b6040519081526020016100c6565b6101156105a4565b6100a0610139366004610708565b6105d7565b61018061014c366004610708565b600160208190526000918252604090912080549181015460029091015460ff82169161010090046001600160a01b03169084565b6040516100c6949392919093845291151560208401526001600160a01b03166040830152606082015260800190565b336000908152600160205260408120805490910361020c5760405162461bcd60e51b81526020600482015260156024820152742430b9903737903934b3b43a103a37903b37ba329760591b60448201526064015b60405180910390fd5b600181015460ff16156102525760405162461bcd60e51b815260206004820152600e60248201526d20b63932b0b23c903b37ba32b21760911b6044820152606401610203565b6001818101805460ff191690911790556002808201839055815481549091908490811061028157610281610738565b906000526020600020906002020160010160008282546102a19190610764565b90915550505050565b600281815481106102ba57600080fd5b60009182526020909120600290910201805460019091015490915082565b33600090815260016020526040812080549091036103385760405162461bcd60e51b815260206004820152601a60248201527f596f752068617665206e6f20726967687420746f20766f74652e0000000000006044820152606401610203565b600181015460ff16156103825760405162461bcd60e51b81526020600482015260126024820152712cb7ba9030b63932b0b23c903b37ba32b21760711b6044820152606401610203565b336001600160a01b038316036103da5760405162461bcd60e51b815260206004820152601e60248201527f53656c662d64656c65676174696f6e20697320646973616c6c6f7765642e00006044820152606401610203565b6001600160a01b03828116600090815260016020819052604090912001546101009004161561047e576001600160a01b03918216600090815260016020819052604090912001546101009004909116903382036104795760405162461bcd60e51b815260206004820152601960248201527f466f756e64206c6f6f7020696e2064656c65676174696f6e2e000000000000006044820152606401610203565b6103da565b6001600160a01b03821660009081526001602081905260409091208054909111156104a857600080fd5b600182810180546001600160a81b0319166101006001600160a01b03871602178217905581015460ff1615610509578154600282810154815481106104ef576104ef610738565b906000526020600020906002020160010181905550505050565b81548154829060009061051d908490610764565b9091555050505050565b600080805b60025481101561059f57816002828154811061054a5761054a610738565b906000526020600020906002020160010154111561058d576002818154811061057557610575610738565b90600052602060002090600202016001015491508092505b806105978161077d565b91505061052c565b505090565b600060026105b0610527565b815481106105c0576105c0610738565b906000526020600020906002020160000154905090565b6000546001600160a01b031633146106425760405162461bcd60e51b815260206004820152602860248201527f4f6e6c79206368616972706572736f6e2063616e2067697665207269676874206044820152673a37903b37ba329760c11b6064820152608401610203565b6001600160a01b0381166000908152600160208190526040909120015460ff16156106af5760405162461bcd60e51b815260206004820152601860248201527f54686520766f74657220616c726561647920766f7465642e00000000000000006044820152606401610203565b6001600160a01b038116600090815260016020526040902054156106d257600080fd5b6001600160a01b0316600090815260016020819052604090912055565b60006020828403121561070157600080fd5b5035919050565b60006020828403121561071a57600080fd5b81356001600160a01b038116811461073157600080fd5b9392505050565b634e487b7160e01b600052603260045260246000fd5b634e487b7160e01b600052601160045260246000fd5b808201808211156107775761077761074e565b92915050565b60006001820161078f5761078f61074e565b506001019056fea2646970667358221220fd62b9d44e840228f928faf2bb305ea671e2591731062eb827cbc8fc6303412064736f6c63430008110033",
    "sourcePath": "/Users/sealtv/Work/github.com/sealtv/sovoiting/contracts/Ballot.sol",
    "compiler": {
        "name": "solc",
        "version": "0.8.17+commit.8df45f5f"
    },
    "functionHashes": {
        "chairperson()": "2e4176cf",
        "delegate(address)": "5c19a95c",
        "giveRightToVote(address)": "9e7b8d61",
        "proposals(uint256)": "013cf08b",
        "vote(uint256)": "0121b93f",
        "voters(address)": "a3ec138d",
        "winnerNane()": "6a832edb",
        "winningProposal()": "609ff1bd"
    },
    "gasEstimates": {
        "creation": {
            "codeDepositCost": "399200",
            "executionCost": "infinite",
            "totalCost": "infinite"
        },
        "external": {
            "chairperson()": "2382",
            "delegate(address)": "infinite",
            "giveRightToVote(address)": "29079",
            "proposals(uint256)": "6743",
            "vote(uint256)": "79515",
            "voters(address)": "6917",
            "winnerNane()": "infinite",
            "winningProposal()": "infinite"
        }
    }
}